{
  "address": "0x0C15BAe399374f9eE1Fb0243780D533704C0feBc",
  "abi": [
    {
      "inputs": [
        {
          "internalType": "address",
          "name": "pairAddress",
          "type": "address"
        },
        {
          "internalType": "address",
          "name": "reserveAddress",
          "type": "address"
        },
        {
          "internalType": "address",
          "name": "uniswapRouterAddress",
          "type": "address"
        }
      ],
      "stateMutability": "nonpayable",
      "type": "constructor"
    },
    {
      "anonymous": false,
      "inputs": [
        {
          "indexed": true,
          "internalType": "address",
          "name": "recipient",
          "type": "address"
        },
        {
          "indexed": true,
          "internalType": "address",
          "name": "sender",
          "type": "address"
        },
        {
          "indexed": false,
          "internalType": "uint256",
          "name": "amountIn",
          "type": "uint256"
        },
        {
          "indexed": false,
          "internalType": "uint256",
          "name": "amountOut",
          "type": "uint256"
        }
      ],
      "name": "Issued",
      "type": "event"
    },
    {
      "anonymous": false,
      "inputs": [
        {
          "indexed": true,
          "internalType": "address",
          "name": "previousOwner",
          "type": "address"
        },
        {
          "indexed": true,
          "internalType": "address",
          "name": "newOwner",
          "type": "address"
        }
      ],
      "name": "OwnershipTransferred",
      "type": "event"
    },
    {
      "inputs": [],
      "name": "calculateETHPerMiner",
      "outputs": [
        {
          "internalType": "uint256",
          "name": "",
          "type": "uint256"
        }
      ],
      "stateMutability": "view",
      "type": "function"
    },
    {
      "inputs": [
        {
          "internalType": "uint256",
          "name": "amount",
          "type": "uint256"
        }
      ],
      "name": "calculateETHToMiner",
      "outputs": [
        {
          "internalType": "uint256",
          "name": "",
          "type": "uint256"
        }
      ],
      "stateMutability": "view",
      "type": "function"
    },
    {
      "inputs": [
        {
          "internalType": "uint256",
          "name": "amount",
          "type": "uint256"
        }
      ],
      "name": "calculateMinerToETH",
      "outputs": [
        {
          "internalType": "uint256",
          "name": "",
          "type": "uint256"
        }
      ],
      "stateMutability": "view",
      "type": "function"
    },
    {
      "inputs": [
        {
          "internalType": "address",
          "name": "pairAddress",
          "type": "address"
        }
      ],
      "name": "changePair",
      "outputs": [],
      "stateMutability": "nonpayable",
      "type": "function"
    },
    {
      "inputs": [
        {
          "internalType": "address",
          "name": "priceFeedOracleAddress",
          "type": "address"
        }
      ],
      "name": "changePriceFeedOracle",
      "outputs": [],
      "stateMutability": "nonpayable",
      "type": "function"
    },
    {
      "inputs": [
        {
          "internalType": "address",
          "name": "reserveAddress",
          "type": "address"
        }
      ],
      "name": "changeReserve",
      "outputs": [],
      "stateMutability": "nonpayable",
      "type": "function"
    },
    {
      "inputs": [
        {
          "internalType": "uint256",
          "name": "exactMinerOut",
          "type": "uint256"
        },
        {
          "internalType": "uint256",
          "name": "deadline",
          "type": "uint256"
        }
      ],
      "name": "issueExactMinerForETH",
      "outputs": [
        {
          "internalType": "uint256",
          "name": "",
          "type": "uint256"
        }
      ],
      "stateMutability": "payable",
      "type": "function"
    },
    {
      "inputs": [
        {
          "internalType": "address[]",
          "name": "path",
          "type": "address[]"
        },
        {
          "internalType": "uint256",
          "name": "maxAmountIn",
          "type": "uint256"
        },
        {
          "internalType": "uint256",
          "name": "exactMinerOut",
          "type": "uint256"
        },
        {
          "internalType": "uint256",
          "name": "deadline",
          "type": "uint256"
        }
      ],
      "name": "issueExactMinerForTokens",
      "outputs": [
        {
          "internalType": "uint256",
          "name": "",
          "type": "uint256"
        }
      ],
      "stateMutability": "nonpayable",
      "type": "function"
    },
    {
      "inputs": [
        {
          "internalType": "uint256",
          "name": "minMinerOut",
          "type": "uint256"
        },
        {
          "internalType": "uint256",
          "name": "deadline",
          "type": "uint256"
        }
      ],
      "name": "issueMinerForExactETH",
      "outputs": [
        {
          "internalType": "uint256",
          "name": "",
          "type": "uint256"
        }
      ],
      "stateMutability": "payable",
      "type": "function"
    },
    {
      "inputs": [
        {
          "internalType": "address[]",
          "name": "path",
          "type": "address[]"
        },
        {
          "internalType": "uint256",
          "name": "amount",
          "type": "uint256"
        },
        {
          "internalType": "uint256",
          "name": "minMinerOut",
          "type": "uint256"
        },
        {
          "internalType": "uint256",
          "name": "deadline",
          "type": "uint256"
        }
      ],
      "name": "issueMinerForExactTokens",
      "outputs": [
        {
          "internalType": "uint256",
          "name": "",
          "type": "uint256"
        }
      ],
      "stateMutability": "nonpayable",
      "type": "function"
    },
    {
      "inputs": [],
      "name": "owner",
      "outputs": [
        {
          "internalType": "address",
          "name": "",
          "type": "address"
        }
      ],
      "stateMutability": "view",
      "type": "function"
    },
    {
      "inputs": [],
      "name": "pair",
      "outputs": [
        {
          "internalType": "address",
          "name": "",
          "type": "address"
        }
      ],
      "stateMutability": "view",
      "type": "function"
    },
    {
      "inputs": [
        {
          "internalType": "address",
          "name": "dest",
          "type": "address"
        }
      ],
      "name": "payments",
      "outputs": [
        {
          "internalType": "uint256",
          "name": "",
          "type": "uint256"
        }
      ],
      "stateMutability": "view",
      "type": "function"
    },
    {
      "inputs": [],
      "name": "priceFeedOracle",
      "outputs": [
        {
          "internalType": "address",
          "name": "",
          "type": "address"
        }
      ],
      "stateMutability": "view",
      "type": "function"
    },
    {
      "inputs": [],
      "name": "renounceOwnership",
      "outputs": [],
      "stateMutability": "nonpayable",
      "type": "function"
    },
    {
      "inputs": [],
      "name": "reserve",
      "outputs": [
        {
          "internalType": "address",
          "name": "",
          "type": "address"
        }
      ],
      "stateMutability": "view",
      "type": "function"
    },
    {
      "inputs": [
        {
          "internalType": "address",
          "name": "newOwner",
          "type": "address"
        }
      ],
      "name": "transferOwnership",
      "outputs": [],
      "stateMutability": "nonpayable",
      "type": "function"
    },
    {
      "inputs": [],
      "name": "uniswapRouter",
      "outputs": [
        {
          "internalType": "address",
          "name": "",
          "type": "address"
        }
      ],
      "stateMutability": "view",
      "type": "function"
    },
    {
      "inputs": [
        {
          "internalType": "address payable",
          "name": "payee",
          "type": "address"
        }
      ],
      "name": "withdrawPayments",
      "outputs": [],
      "stateMutability": "nonpayable",
      "type": "function"
    },
    {
      "stateMutability": "payable",
      "type": "receive"
    }
  ],
  "transactionHash": "0xe777d4ed180aab324b5772cec1a98094f85e577ae61fc4715bb067fdd4ee4209",
  "args": [
    "0xEEE8B4522617FE2f992351CB7C34568A77042d1d",
    "0x66c614210349b93F56569825e72A71071d3d7d68",
    "0x7a250d5630B4cF539739dF2C5dAcb4c659F2488D"
  ],
  "numDeployments": 1,
  "solcInputHash": "aa03e8f8f16fa281bfddf082cb0d0416",
  "bytecode": "0x60a06040523480156200001157600080fd5b506040516200230c3803806200230c833981016040819052620000349162000150565b604051620000429062000125565b604051809103906000f0801580156200005f573d6000803e3d6000fd5b506001600160a01b03166080526200007733620000d5565b60018055600380546001600160a01b0319166001600160a01b038516179055600480546001600160a01b0319166001600160a01b038416179055600580546001600160a01b0319166001600160a01b0383161790555050506200019a565b600080546001600160a01b038381166001600160a01b0319831681178455604051919092169283917f8be0079c531659141344cd1fd0a4f28419497f9722a3daafe3b4186f6b6457e09190a35050565b6105f28062001d1a83390190565b80516001600160a01b03811681146200014b57600080fd5b919050565b6000806000606084860312156200016657600080fd5b620001718462000133565b9250620001816020850162000133565b9150620001916040850162000133565b90509250925092565b608051611b56620001c4600039600081816103b701528181610bd90152610d8b0152611b566000f3fe6080604052600436106101185760003560e01c8063735de9f7116100a0578063ca58da1a11610064578063ca58da1a146102f8578063cd3293de14610318578063e2982c2114610338578063e47148f014610358578063f2fde38b1461037857600080fd5b8063735de9f7146102425780638da5cb5b1461027a578063a8aa1b3114610298578063ad15e477146102b8578063b9ab9927146102d857600080fd5b806331b3eb94116100e757806331b3eb94146101ad5780635895a506146101cd578063630acb52146101ed5780636bc8af841461020d578063715018a61461022d57600080fd5b80630c5b3f6f1461013f57806316c0d9e214610167578063178dfdc71461017a57806317fd5c051461019a57600080fd5b3661013a576101386101326000546001600160a01b031690565b34610398565b005b600080fd5b34801561014b57600080fd5b50610154610419565b6040519081526020015b60405180910390f35b610154610175366004611602565b610428565b34801561018657600080fd5b50610154610195366004611624565b6105c7565b6101546101a8366004611602565b6108f8565b3480156101b957600080fd5b506101386101c83660046116c4565b610bba565b3480156101d957600080fd5b506101546101e83660046116e1565b610c38565b3480156101f957600080fd5b506101546102083660046116e1565b610c49565b34801561021957600080fd5b506101386102283660046116c4565b610c54565b34801561023957600080fd5b50610138610c9f565b34801561024e57600080fd5b50600554610262906001600160a01b031681565b6040516001600160a01b03909116815260200161015e565b34801561028657600080fd5b506000546001600160a01b0316610262565b3480156102a457600080fd5b50600354610262906001600160a01b031681565b3480156102c457600080fd5b506101386102d33660046116c4565b610cd5565b3480156102e457600080fd5b50600254610262906001600160a01b031681565b34801561030457600080fd5b506101386103133660046116c4565b610d21565b34801561032457600080fd5b50600454610262906001600160a01b031681565b34801561034457600080fd5b506101546103533660046116c4565b610d69565b34801561036457600080fd5b50610154610373366004611624565b610df8565b34801561038457600080fd5b506101386103933660046116c4565b6110f3565b60405163f340fa0160e01b81526001600160a01b0383811660048301527f0000000000000000000000000000000000000000000000000000000000000000169063f340fa019083906024016000604051808303818588803b1580156103fc57600080fd5b505af1158015610410573d6000803e3d6000fd5b50505050505050565b600061042361118b565b905090565b60004282101561047f5760405162461bcd60e51b815260206004820152601e60248201527f4d696e657249737375616e63652f646561646c696e652d65787069726564000060448201526064015b60405180910390fd5b34806104cd5760405162461bcd60e51b815260206004820152601d60248201527f4d696e657249737375616e63652f6465706f7369742d696e76616c69640000006044820152606401610476565b60006104d8826112fb565b9050848110156104fa5760405162461bcd60e51b8152600401610476906116fa565b61051561050f6000546001600160a01b031690565b83610398565b6004546001600160a01b031663867904b4336040516001600160e01b031960e084901b1681526001600160a01b03909116600482015260248101849052604401600060405180830381600087803b15801561056f57600080fd5b505af1158015610583573d6000803e3d6000fd5b505060045460408051868152602081018690526001600160a01b039092169350339250600080516020611b01833981519152910160405180910390a3949350505050565b60055460405163d06ca61f60e01b81526000916001600160a01b0316908290829063d06ca61f906106009089908c908c90600401611788565b600060405180830381865afa15801561061d573d6000803e3d6000fd5b505050506040513d6000823e601f3d908101601f1916820160405261064591908101906117c1565b610650600189611895565b81518110610660576106606118ac565b602002602001015190506000610675826112fb565b9050858110156106975760405162461bcd60e51b8152600401610476906116fa565b6106ca898960008181106106ad576106ad6118ac565b90506020020160208101906106c291906116c4565b33308a61132c565b610707898960008181106106e0576106e06118ac565b90506020020160208101906106f591906116c4565b6005546001600160a01b03168961146a565b600061071e6103536000546001600160a01b031690565b90506000846001600160a01b03166318cbafe58a868e8e308d6040518763ffffffff1660e01b8152600401610758969594939291906118c2565b6000604051808303816000875af1158015610777573d6000803e3d6000fd5b505050506040513d6000823e601f3d908101601f1916820160405261079f91908101906117c1565b905060006107b86103536000546001600160a01b031690565b905081600183516107c99190611895565b815181106107d9576107d96118ac565b6020026020010151836107ec9190611900565b811461080a5760405162461bcd60e51b815260040161047690611918565b600061083b836001855161081e9190611895565b8151811061082e5761082e6118ac565b60200260200101516112fb565b6004549091506001600160a01b031663867904b4336040516001600160e01b031960e084901b1681526001600160a01b03909116600482015260248101849052604401600060405180830381600087803b15801561089857600080fd5b505af11580156108ac573d6000803e3d6000fd5b5050600454604080518f8152602081018690526001600160a01b039092169350339250600080516020611b01833981519152910160405180910390a39c9b505050505050505050505050565b600060026001540361094c5760405162461bcd60e51b815260206004820152601f60248201527f5265656e7472616e637947756172643a207265656e7472616e742063616c6c006044820152606401610476565b6002600155428210156109a15760405162461bcd60e51b815260206004820152601e60248201527f4d696e657249737375616e63652f646561646c696e652d6578706972656400006044820152606401610476565b34806109ef5760405162461bcd60e51b815260206004820152601d60248201527f4d696e657249737375616e63652f6465706f7369742d696e76616c69640000006044820152606401610476565b60006109fa85611592565b905081811115610a1c5760405162461bcd60e51b815260040161047690611964565b610a37610a316000546001600160a01b031690565b82610398565b808210610b0357600033610a4b8385611895565b60408051600081526020810191829052610a64916119a5565b60006040518083038185875af1925050503d8060008114610aa1576040519150601f19603f3d011682016040523d82523d6000602084013e610aa6565b606091505b5050905080610b015760405162461bcd60e51b815260206004820152602160248201527f4d696e657249737375616e63652f63616e6e6f742d726566756e642d657468656044820152603960f91b6064820152608401610476565b505b6004546001600160a01b031663867904b4336040516001600160e01b031960e084901b1681526001600160a01b03909116600482015260248101889052604401600060405180830381600087803b158015610b5d57600080fd5b505af1158015610b71573d6000803e3d6000fd5b505060045460408051858152602081018a90526001600160a01b039092169350339250600080516020611b01833981519152910160405180910390a35050600180555090919050565b6040516351cff8d960e01b81526001600160a01b0382811660048301527f000000000000000000000000000000000000000000000000000000000000000016906351cff8d990602401600060405180830381600087803b158015610c1d57600080fd5b505af1158015610c31573d6000803e3d6000fd5b5050505050565b6000610c4382611592565b92915050565b6000610c43826112fb565b6000546001600160a01b03163314610c7e5760405162461bcd60e51b8152600401610476906119e0565b600380546001600160a01b0319166001600160a01b03831617905550565b50565b6000546001600160a01b03163314610cc95760405162461bcd60e51b8152600401610476906119e0565b610cd360006115b2565b565b6000546001600160a01b03163314610cff5760405162461bcd60e51b8152600401610476906119e0565b600280546001600160a01b0319166001600160a01b0392909216919091179055565b6000546001600160a01b03163314610d4b5760405162461bcd60e51b8152600401610476906119e0565b600480546001600160a01b0319166001600160a01b03831617905550565b6040516371d4ed8d60e11b81526001600160a01b0382811660048301526000917f00000000000000000000000000000000000000000000000000000000000000009091169063e3a9db1a90602401602060405180830381865afa158015610dd4573d6000803e3d6000fd5b505050506040513d601f19601f82011682018060405250810190610c439190611a15565b6005546000906001600160a01b031681610e1185611592565b90506000826001600160a01b0316631f00ca74838b8b6040518463ffffffff1660e01b8152600401610e4593929190611788565b600060405180830381865afa158015610e62573d6000803e3d6000fd5b505050506040513d6000823e601f3d908101601f19168201604052610e8a91908101906117c1565b600081518110610e9c57610e9c6118ac565b6020026020010151905086811115610ec65760405162461bcd60e51b815260040161047690611964565b610ef989896000818110610edc57610edc6118ac565b9050602002016020810190610ef191906116c4565b33308461132c565b610f3689896000818110610f0f57610f0f6118ac565b9050602002016020810190610f2491906116c4565b6005546001600160a01b03168361146a565b6000610f4d6103536000546001600160a01b031690565b90506000846001600160a01b0316634a25d94a85858e8e308d6040518763ffffffff1660e01b8152600401610f87969594939291906118c2565b6000604051808303816000875af1158015610fa6573d6000803e3d6000fd5b505050506040513d6000823e601f3d908101601f19168201604052610fce91908101906117c1565b90506000610fe76103536000546001600160a01b031690565b90508160018351610ff89190611895565b81518110611008576110086118ac565b60200260200101518361101b9190611900565b81146110395760405162461bcd60e51b815260040161047690611918565b6004546001600160a01b031663867904b4336040516001600160e01b031960e084901b1681526001600160a01b039091166004820152602481018c9052604401600060405180830381600087803b15801561109357600080fd5b505af11580156110a7573d6000803e3d6000fd5b505060045460408051888152602081018e90526001600160a01b039092169350339250600080516020611b01833981519152910160405180910390a350969a9950505050505050505050565b6000546001600160a01b0316331461111d5760405162461bcd60e51b8152600401610476906119e0565b6001600160a01b0381166111825760405162461bcd60e51b815260206004820152602660248201527f4f776e61626c653a206e6577206f776e657220697320746865207a65726f206160448201526564647265737360d01b6064820152608401610476565b610c9c816115b2565b6002546000906001600160a01b03166111e65760405162461bcd60e51b815260206004820152601b60248201527f4d696e657249737375616e63652f6e6f2d6f7261636c652d73657400000000006044820152606401610476565b60035460408051634c6afee560e11b815290516000926001600160a01b0316916398d5fdca9160048083019260209291908290030181865afa158015611230573d6000803e3d6000fd5b505050506040513d601f19601f820116820180604052508101906112549190611a15565b90506000600260009054906101000a90046001600160a01b03166001600160a01b031663feaf968c6040518163ffffffff1660e01b815260040160a060405180830381865afa1580156112ab573d6000803e3d6000fd5b505050506040513d601f19601f820116820180604052508101906112cf9190611a4d565b5050509150508082670de0b6b3a76400006112ea9190611a9d565b6112f49190611abc565b9250505090565b60008061130661118b565b90508061131b84670de0b6b3a7640000611a9d565b6113259190611abc565b9392505050565b604080516001600160a01b0385811660248301528481166044830152606480830185905283518084039091018152608490920183526020820180516001600160e01b03166323b872dd60e01b179052915160009283929088169161139091906119a5565b6000604051808303816000865af19150503d80600081146113cd576040519150601f19603f3d011682016040523d82523d6000602084013e6113d2565b606091505b50915091508180156113fc5750805115806113fc5750808060200190518101906113fc9190611ade565b6114625760405162461bcd60e51b815260206004820152603160248201527f5472616e7366657248656c7065723a3a7472616e7366657246726f6d3a207472604482015270185b9cd9995c919c9bdb4819985a5b1959607a1b6064820152608401610476565b505050505050565b604080516001600160a01b038481166024830152604480830185905283518084039091018152606490920183526020820180516001600160e01b031663095ea7b360e01b17905291516000928392908716916114c691906119a5565b6000604051808303816000865af19150503d8060008114611503576040519150601f19603f3d011682016040523d82523d6000602084013e611508565b606091505b50915091508180156115325750805115806115325750808060200190518101906115329190611ade565b610c315760405162461bcd60e51b815260206004820152602b60248201527f5472616e7366657248656c7065723a3a73616665417070726f76653a2061707060448201526a1c9bdd994819985a5b195960aa1b6064820152608401610476565b60008061159d61118b565b9050670de0b6b3a764000061131b8285611a9d565b600080546001600160a01b038381166001600160a01b0319831681178455604051919092169283917f8be0079c531659141344cd1fd0a4f28419497f9722a3daafe3b4186f6b6457e09190a35050565b6000806040838503121561161557600080fd5b50508035926020909101359150565b60008060008060006080868803121561163c57600080fd5b853567ffffffffffffffff8082111561165457600080fd5b818801915088601f83011261166857600080fd5b81358181111561167757600080fd5b8960208260051b850101111561168c57600080fd5b60209283019a909950918801359760408101359750606001359550909350505050565b6001600160a01b0381168114610c9c57600080fd5b6000602082840312156116d657600080fd5b8135611325816116af565b6000602082840312156116f357600080fd5b5035919050565b60208082526025908201527f4d696e657249737375616e63652f696e73756666696369656e742d616d6f756e6040820152641d0b5bdd5d60da1b606082015260800190565b8183526000602080850194508260005b8581101561177d578135611762816116af565b6001600160a01b03168752958201959082019060010161174f565b509495945050505050565b8381526040602082015260006117a260408301848661173f565b95945050505050565b634e487b7160e01b600052604160045260246000fd5b600060208083850312156117d457600080fd5b825167ffffffffffffffff808211156117ec57600080fd5b818501915085601f83011261180057600080fd5b815181811115611812576118126117ab565b8060051b604051601f19603f83011681018181108582111715611837576118376117ab565b60405291825284820192508381018501918883111561185557600080fd5b938501935b828510156118735784518452938501939285019261185a565b98975050505050505050565b634e487b7160e01b600052601160045260246000fd5b6000828210156118a7576118a761187f565b500390565b634e487b7160e01b600052603260045260246000fd5b86815285602082015260a0604082015260006118e260a08301868861173f565b6001600160a01b039490941660608301525060800152949350505050565b600082198211156119135761191361187f565b500190565b6020808252602c908201527f4d696e657249737375616e63652f696e76616c69642d6574682d616d6f756e7460408201526b0b5d1c985b9cd9995c9c995960a21b606082015260800190565b60208082526021908201527f4d696e657249737375616e63652f6578636573736976652d616d6f756e742d696040820152603760f91b606082015260800190565b6000825160005b818110156119c657602081860181015185830152016119ac565b818111156119d5576000828501525b509190910192915050565b6020808252818101527f4f776e61626c653a2063616c6c6572206973206e6f7420746865206f776e6572604082015260600190565b600060208284031215611a2757600080fd5b5051919050565b805169ffffffffffffffffffff81168114611a4857600080fd5b919050565b600080600080600060a08688031215611a6557600080fd5b611a6e86611a2e565b9450602086015193506040860151925060608601519150611a9160808701611a2e565b90509295509295909350565b6000816000190483118215151615611ab757611ab761187f565b500290565b600082611ad957634e487b7160e01b600052601260045260246000fd5b500490565b600060208284031215611af057600080fd5b8151801515811461132557600080fdfefb523ef2d7d7cf3cca7bf64af41c5cce286257d61e3b23859742a3bbec9d5df8a264697066735822122090b2df5e0333b01b924cce3b08bc09c0ac73eafe32e417a90e3dc6936f5286d164736f6c634300080f0033608060405234801561001057600080fd5b5061001a3361001f565b61006f565b600080546001600160a01b038381166001600160a01b0319831681178455604051919092169283917f8be0079c531659141344cd1fd0a4f28419497f9722a3daafe3b4186f6b6457e09190a35050565b6105748061007e6000396000f3fe6080604052600436106100555760003560e01c806351cff8d91461005a578063715018a61461007c5780638da5cb5b14610091578063e3a9db1a146100be578063f2fde38b14610102578063f340fa0114610122575b600080fd5b34801561006657600080fd5b5061007a6100753660046104bf565b610135565b005b34801561008857600080fd5b5061007a6101d7565b34801561009d57600080fd5b506000546040516001600160a01b0390911681526020015b60405180910390f35b3480156100ca57600080fd5b506100f46100d93660046104bf565b6001600160a01b031660009081526001602052604090205490565b6040519081526020016100b5565b34801561010e57600080fd5b5061007a61011d3660046104bf565b61020d565b61007a6101303660046104bf565b6102a8565b6000546001600160a01b031633146101685760405162461bcd60e51b815260040161015f906104e3565b60405180910390fd5b6001600160a01b0381166000818152600160205260408120805491905590610190908261033c565b816001600160a01b03167f7084f5476618d8e60b11ef0d7d3f06914655adb8793e28ff7f018d4c76d505d5826040516101cb91815260200190565b60405180910390a25050565b6000546001600160a01b031633146102015760405162461bcd60e51b815260040161015f906104e3565b61020b600061045a565b565b6000546001600160a01b031633146102375760405162461bcd60e51b815260040161015f906104e3565b6001600160a01b03811661029c5760405162461bcd60e51b815260206004820152602660248201527f4f776e61626c653a206e6577206f776e657220697320746865207a65726f206160448201526564647265737360d01b606482015260840161015f565b6102a58161045a565b50565b6000546001600160a01b031633146102d25760405162461bcd60e51b815260040161015f906104e3565b6001600160a01b0381166000908152600160205260408120805434928392916102fc908490610518565b90915550506040518181526001600160a01b038316907f2da466a7b24304f47e87fa2e1e5a81b9831ce54fec19055ce277ca2f39ba42c4906020016101cb565b8047101561038c5760405162461bcd60e51b815260206004820152601d60248201527f416464726573733a20696e73756666696369656e742062616c616e6365000000604482015260640161015f565b6000826001600160a01b03168260405160006040518083038185875af1925050503d80600081146103d9576040519150601f19603f3d011682016040523d82523d6000602084013e6103de565b606091505b50509050806104555760405162461bcd60e51b815260206004820152603a60248201527f416464726573733a20756e61626c6520746f2073656e642076616c75652c207260448201527f6563697069656e74206d61792068617665207265766572746564000000000000606482015260840161015f565b505050565b600080546001600160a01b038381166001600160a01b0319831681178455604051919092169283917f8be0079c531659141344cd1fd0a4f28419497f9722a3daafe3b4186f6b6457e09190a35050565b6001600160a01b03811681146102a557600080fd5b6000602082840312156104d157600080fd5b81356104dc816104aa565b9392505050565b6020808252818101527f4f776e61626c653a2063616c6c6572206973206e6f7420746865206f776e6572604082015260600190565b6000821982111561053957634e487b7160e01b600052601160045260246000fd5b50019056fea2646970667358221220a9ab8ac81dfa472e64ecaca0aac01c633b160f5f5e41d7a77f886f6a91acfd1664736f6c634300080f0033",
  "devdoc": {
    "kind": "dev",
    "methods": {
      "calculateETHPerMiner()": {
        "returns": {
          "_0": "uint256 The price off a single Miner token in Ether."
        }
      },
      "calculateETHToMiner(uint256)": {
        "details": "The amount of Ether must be in Wei, x ether * 10^18 (18 dp).",
        "params": {
          "amount": "uint256 The amount of Ether to swap."
        },
        "returns": {
          "_0": "uint256 The amount of Miner tokens received for the specified Ether amount."
        }
      },
      "changePair(address)": {
        "params": {
          "pairAddress": "address The USD Miner pair address."
        }
      },
      "changePriceFeedOracle(address)": {
        "params": {
          "priceFeedOracleAddress": "address The Price Feed contract."
        }
      },
      "changeReserve(address)": {
        "params": {
          "reserveAddress": "address The Reserve contract."
        }
      },
      "constructor": {
        "params": {
          "pairAddress": "address The USD Miner pair.",
          "reserveAddress": "address The MinerReserve contract.",
          "uniswapRouterAddress": "address The Uniswap Router contract."
        }
      },
      "issueExactMinerForETH(uint256,uint256)": {
        "params": {
          "deadline": "uint256 A timestamp indicating how long the swap will stay active. Reverts if expired.",
          "exactMinerOut": "uint256 The exact amount of Miner token to receive. Reverts if the minimum is not met."
        },
        "returns": {
          "_0": "uint256 The amount of Miner token swapped."
        }
      },
      "issueExactMinerForTokens(address[],uint256,uint256,uint256)": {
        "params": {
          "deadline": "uint256 A timestamp indicating how long the swap will stay active. Reverts if expired.",
          "exactMinerOut": "uint256 The exact amount of Miner token to receive.",
          "maxAmountIn": "uint256 The maximum amount of tokens to swap for Miner. Reverts if the minimum is not met.",
          "path": "address[] The optimal path to take when swapping a token for ETH. Must be a valid ERC20-compatible token and the final token must be WETH."
        },
        "returns": {
          "_0": "uint256 The amount of Miner token swapped."
        }
      },
      "issueMinerForExactETH(uint256,uint256)": {
        "params": {
          "deadline": "uint256 A timestamp indicating how long the swap will stay active. Reverts if expired.",
          "minMinerOut": "uint256 The minimum amount of Miner token to receive. Reverts if the minimum is not met."
        },
        "returns": {
          "_0": "uint256 The amount of Miner token swapped."
        }
      },
      "issueMinerForExactTokens(address[],uint256,uint256,uint256)": {
        "params": {
          "amount": "uint256 The amount of token to swap for Miner.",
          "deadline": "uint256 A timestamp indicating how long the swap will stay active. Reverts if expired.",
          "minMinerOut": "uint256 The minimum amount of Miner token to receive. Reverts if the minimum is not met.",
          "path": "address[] The optimal path to take when swapping a token for ETH. Must be a valid ERC20-compatible token and the final token must be WETH."
        },
        "returns": {
          "_0": "uint256 The amount of Miner token swapped."
        }
      },
      "owner()": {
        "details": "Returns the address of the current owner."
      },
      "payments(address)": {
        "details": "Returns the payments owed to an address.",
        "params": {
          "dest": "The creditor's address."
        }
      },
      "renounceOwnership()": {
        "details": "Leaves the contract without owner. It will not be possible to call `onlyOwner` functions anymore. Can only be called by the current owner. NOTE: Renouncing ownership will leave the contract without an owner, thereby removing any functionality that is only available to the owner."
      },
      "transferOwnership(address)": {
        "details": "Transfers ownership of the contract to a new account (`newOwner`). Can only be called by the current owner."
      },
      "withdrawPayments(address)": {
        "details": "Withdraw accumulated payments, forwarding all gas to the recipient. Note that _any_ account can call this function, not just the `payee`. This means that contracts unaware of the `PullPayment` protocol can still receive funds this way, by having a separate account call {withdrawPayments}. WARNING: Forwarding all gas opens the door to reentrancy vulnerabilities. Make sure you trust the recipient, or are either following the checks-effects-interactions pattern or using {ReentrancyGuard}.",
        "params": {
          "payee": "Whose payments will be withdrawn."
        }
      }
    },
    "title": "Issue Miner for Ether and other ERC20 tokens.",
    "version": 1
  },
  "userdoc": {
    "kind": "user",
    "methods": {
      "calculateETHPerMiner()": {
        "notice": "Calculates the price of a single Miner token in Ether. The amount will be returned in Wei, x ether * 10^18 (18 dp)."
      },
      "calculateETHToMiner(uint256)": {
        "notice": "Calculate how much miner will be received for `amount` ETH."
      },
      "changePair(address)": {
        "notice": "Sets the USD to Miner pair address."
      },
      "changePriceFeedOracle(address)": {
        "notice": "Changes the Price Feed contract. This will be a valid Chainlink contract. A list of contracts is available at https://docs.chain.link/docs/ethereum-addresses/."
      },
      "changeReserve(address)": {
        "notice": "Sets the Reserve contract."
      },
      "constructor": {
        "notice": "Initializes the MinerIssuance contract."
      },
      "issueExactMinerForETH(uint256,uint256)": {
        "notice": "Issue exactly `exactMinerOut` Miner for no more than `maxETHIn` ETH. Any additional ether will be refunded back to the user."
      },
      "issueExactMinerForTokens(address[],uint256,uint256,uint256)": {
        "notice": "Issue exactly `exactMinerOut` Miner for no more than `maxAmountIn` of the selected token. dev Emits a SwappedTokenToMiner event if successful."
      },
      "issueMinerForExactETH(uint256,uint256)": {
        "notice": "Issue at least `minMinerOut` Miner for an exact amount of ETH."
      },
      "issueMinerForExactTokens(address[],uint256,uint256,uint256)": {
        "notice": "Issue at least `minMinerOut` Miner for exactly `amount` of `token` tokens. dev Emits a SwappedTokenToMiner event if successful."
      }
    },
    "version": 1
  },
  "storageLayout": {
    "storage": [
      {
        "astId": 446,
        "contract": "contracts/MinerIssuance.sol:MinerIssuance",
        "label": "_owner",
        "offset": 0,
        "slot": "0",
        "type": "t_address"
      },
      {
        "astId": 617,
        "contract": "contracts/MinerIssuance.sol:MinerIssuance",
        "label": "_status",
        "offset": 0,
        "slot": "1",
        "type": "t_uint256"
      },
      {
        "astId": 2183,
        "contract": "contracts/MinerIssuance.sol:MinerIssuance",
        "label": "priceFeedOracle",
        "offset": 0,
        "slot": "2",
        "type": "t_address"
      },
      {
        "astId": 2185,
        "contract": "contracts/MinerIssuance.sol:MinerIssuance",
        "label": "pair",
        "offset": 0,
        "slot": "3",
        "type": "t_address"
      },
      {
        "astId": 2187,
        "contract": "contracts/MinerIssuance.sol:MinerIssuance",
        "label": "reserve",
        "offset": 0,
        "slot": "4",
        "type": "t_address"
      },
      {
        "astId": 2189,
        "contract": "contracts/MinerIssuance.sol:MinerIssuance",
        "label": "uniswapRouter",
        "offset": 0,
        "slot": "5",
        "type": "t_address"
      }
    ],
    "types": {
      "t_address": {
        "encoding": "inplace",
        "label": "address",
        "numberOfBytes": "20"
      },
      "t_uint256": {
        "encoding": "inplace",
        "label": "uint256",
        "numberOfBytes": "32"
      }
    }
  }
}