{
  "address": "0x66c614210349b93F56569825e72A71071d3d7d68",
  "abi": [
    {
      "inputs": [
        {
          "internalType": "address",
          "name": "token",
          "type": "address"
        }
      ],
      "stateMutability": "nonpayable",
      "type": "constructor"
    },
    {
      "anonymous": false,
      "inputs": [
        {
          "indexed": true,
          "internalType": "address",
          "name": "recipient",
          "type": "address"
        },
        {
          "indexed": false,
          "internalType": "uint256",
          "name": "amount",
          "type": "uint256"
        }
      ],
      "name": "Issued",
      "type": "event"
    },
    {
      "anonymous": false,
      "inputs": [
        {
          "indexed": true,
          "internalType": "bytes32",
          "name": "role",
          "type": "bytes32"
        },
        {
          "indexed": true,
          "internalType": "bytes32",
          "name": "previousAdminRole",
          "type": "bytes32"
        },
        {
          "indexed": true,
          "internalType": "bytes32",
          "name": "newAdminRole",
          "type": "bytes32"
        }
      ],
      "name": "RoleAdminChanged",
      "type": "event"
    },
    {
      "anonymous": false,
      "inputs": [
        {
          "indexed": true,
          "internalType": "bytes32",
          "name": "role",
          "type": "bytes32"
        },
        {
          "indexed": true,
          "internalType": "address",
          "name": "account",
          "type": "address"
        },
        {
          "indexed": true,
          "internalType": "address",
          "name": "sender",
          "type": "address"
        }
      ],
      "name": "RoleGranted",
      "type": "event"
    },
    {
      "anonymous": false,
      "inputs": [
        {
          "indexed": true,
          "internalType": "bytes32",
          "name": "role",
          "type": "bytes32"
        },
        {
          "indexed": true,
          "internalType": "address",
          "name": "account",
          "type": "address"
        },
        {
          "indexed": true,
          "internalType": "address",
          "name": "sender",
          "type": "address"
        }
      ],
      "name": "RoleRevoked",
      "type": "event"
    },
    {
      "inputs": [],
      "name": "DEFAULT_ADMIN_ROLE",
      "outputs": [
        {
          "internalType": "bytes32",
          "name": "",
          "type": "bytes32"
        }
      ],
      "stateMutability": "view",
      "type": "function"
    },
    {
      "inputs": [],
      "name": "ISSUER_ROLE",
      "outputs": [
        {
          "internalType": "bytes32",
          "name": "",
          "type": "bytes32"
        }
      ],
      "stateMutability": "view",
      "type": "function"
    },
    {
      "inputs": [
        {
          "internalType": "bytes32",
          "name": "role",
          "type": "bytes32"
        }
      ],
      "name": "getRoleAdmin",
      "outputs": [
        {
          "internalType": "bytes32",
          "name": "",
          "type": "bytes32"
        }
      ],
      "stateMutability": "view",
      "type": "function"
    },
    {
      "inputs": [
        {
          "internalType": "bytes32",
          "name": "role",
          "type": "bytes32"
        },
        {
          "internalType": "address",
          "name": "account",
          "type": "address"
        }
      ],
      "name": "grantRole",
      "outputs": [],
      "stateMutability": "nonpayable",
      "type": "function"
    },
    {
      "inputs": [
        {
          "internalType": "bytes32",
          "name": "role",
          "type": "bytes32"
        },
        {
          "internalType": "address",
          "name": "account",
          "type": "address"
        }
      ],
      "name": "hasRole",
      "outputs": [
        {
          "internalType": "bool",
          "name": "",
          "type": "bool"
        }
      ],
      "stateMutability": "view",
      "type": "function"
    },
    {
      "inputs": [
        {
          "internalType": "address",
          "name": "recipient",
          "type": "address"
        },
        {
          "internalType": "uint256",
          "name": "amount",
          "type": "uint256"
        }
      ],
      "name": "issue",
      "outputs": [],
      "stateMutability": "nonpayable",
      "type": "function"
    },
    {
      "inputs": [
        {
          "internalType": "bytes32",
          "name": "role",
          "type": "bytes32"
        },
        {
          "internalType": "address",
          "name": "account",
          "type": "address"
        }
      ],
      "name": "renounceRole",
      "outputs": [],
      "stateMutability": "nonpayable",
      "type": "function"
    },
    {
      "inputs": [
        {
          "internalType": "bytes32",
          "name": "role",
          "type": "bytes32"
        },
        {
          "internalType": "address",
          "name": "account",
          "type": "address"
        }
      ],
      "name": "revokeRole",
      "outputs": [],
      "stateMutability": "nonpayable",
      "type": "function"
    },
    {
      "inputs": [
        {
          "internalType": "bytes4",
          "name": "interfaceId",
          "type": "bytes4"
        }
      ],
      "name": "supportsInterface",
      "outputs": [
        {
          "internalType": "bool",
          "name": "",
          "type": "bool"
        }
      ],
      "stateMutability": "view",
      "type": "function"
    }
  ],
  "transactionHash": "0xc367eff6691a1760b74101879f018ee47ed3c34b7f8b3e30c3a6f0330481f7d0",
  "args": [
    "0x20c23F279CCD0c804a9a89f78b57b3Ba2f4B1698"
  ],
  "numDeployments": 1,
  "solcInputHash": "aa03e8f8f16fa281bfddf082cb0d0416",
  "bytecode": "0x608060405234801561001057600080fd5b50604051610e08380380610e0883398101604081905261002f91610137565b600180546001600160a01b0319166001600160a01b03831617905561005b60006100563390565b61008b565b6100857f114e74f6ea3bd819998f78687bfcb11b140da08e9b7d222fa9c1f1ba1f2aa1223361008b565b50610167565b6100958282610099565b5050565b6000828152602081815260408083206001600160a01b038516845290915290205460ff16610095576000828152602081815260408083206001600160a01b03851684529091529020805460ff191660011790556100f33390565b6001600160a01b0316816001600160a01b0316837f2f8788117e7eff1d82e926ec794901d17c78024a50270940304540a733656f0d60405160405180910390a45050565b60006020828403121561014957600080fd5b81516001600160a01b038116811461016057600080fd5b9392505050565b610c92806101766000396000f3fe608060405234801561001057600080fd5b50600436106100935760003560e01c806382aefa241161006657806382aefa2414610119578063867904b41461014057806391d1485414610153578063a217fddf14610166578063d547741f1461016e57600080fd5b806301ffc9a714610098578063248a9ca3146100c05780632f2ff15d146100f157806336568abe14610106575b600080fd5b6100ab6100a63660046109e8565b610181565b60405190151581526020015b60405180910390f35b6100e36100ce366004610a12565b60009081526020819052604090206001015490565b6040519081526020016100b7565b6101046100ff366004610a47565b6101b8565b005b610104610114366004610a47565b6101e2565b6100e37f114e74f6ea3bd819998f78687bfcb11b140da08e9b7d222fa9c1f1ba1f2aa12281565b61010461014e366004610a73565b610265565b6100ab610161366004610a47565b6103f8565b6100e3600081565b61010461017c366004610a47565b610421565b60006001600160e01b03198216637965db0b60e01b14806101b257506301ffc9a760e01b6001600160e01b03198316145b92915050565b6000828152602081905260409020600101546101d381610446565b6101dd8383610453565b505050565b6001600160a01b03811633146102575760405162461bcd60e51b815260206004820152602f60248201527f416363657373436f6e74726f6c3a2063616e206f6e6c792072656e6f756e636560448201526e103937b632b9903337b91039b2b63360891b60648201526084015b60405180910390fd5b61026182826104d7565b5050565b7f114e74f6ea3bd819998f78687bfcb11b140da08e9b7d222fa9c1f1ba1f2aa12261028f81610446565b600082116102df5760405162461bcd60e51b815260206004820152601b60248201527f4d696e6572526573657276652f616d6f756e742d696e76616c69640000000000604482015260640161024e565b6001546040516370a0823160e01b815230600482015283916001600160a01b0316906370a0823190602401602060405180830381865afa158015610327573d6000803e3d6000fd5b505050506040513d601f19601f8201168201806040525081019061034b9190610a9d565b10156103995760405162461bcd60e51b815260206004820152601d60248201527f4d696e6572526573657276652f62616c616e63652d6578636565646564000000604482015260640161024e565b6001546103b0906001600160a01b0316848461053c565b826001600160a01b03167fa59f12e354e8cd10bb74c559844c2dd69a5458e31fe56c7594c62ca57480509a836040516103eb91815260200190565b60405180910390a2505050565b6000918252602082815260408084206001600160a01b0393909316845291905290205460ff1690565b60008281526020819052604090206001015461043c81610446565b6101dd83836104d7565b610450813361058e565b50565b61045d82826103f8565b610261576000828152602081815260408083206001600160a01b03851684529091529020805460ff191660011790556104933390565b6001600160a01b0316816001600160a01b0316837f2f8788117e7eff1d82e926ec794901d17c78024a50270940304540a733656f0d60405160405180910390a45050565b6104e182826103f8565b15610261576000828152602081815260408083206001600160a01b0385168085529252808320805460ff1916905551339285917ff6391f5c32d9c69d2a47ea670b442974b53935d1edc7fd64eb21e047a839171b9190a45050565b604080516001600160a01b038416602482015260448082018490528251808303909101815260649091019091526020810180516001600160e01b031663a9059cbb60e01b1790526101dd9084906105f2565b61059882826103f8565b610261576105b0816001600160a01b031660146106c4565b6105bb8360206106c4565b6040516020016105cc929190610ae6565b60408051601f198184030181529082905262461bcd60e51b825261024e91600401610b5b565b6000610647826040518060400160405280602081526020017f5361666545524332303a206c6f772d6c6576656c2063616c6c206661696c6564815250856001600160a01b03166108679092919063ffffffff16565b8051909150156101dd57808060200190518101906106659190610b8e565b6101dd5760405162461bcd60e51b815260206004820152602a60248201527f5361666545524332303a204552433230206f7065726174696f6e20646964206e6044820152691bdd081cdd58d8d9595960b21b606482015260840161024e565b606060006106d3836002610bc6565b6106de906002610be5565b67ffffffffffffffff8111156106f6576106f6610bfd565b6040519080825280601f01601f191660200182016040528015610720576020820181803683370190505b509050600360fc1b8160008151811061073b5761073b610c13565b60200101906001600160f81b031916908160001a905350600f60fb1b8160018151811061076a5761076a610c13565b60200101906001600160f81b031916908160001a905350600061078e846002610bc6565b610799906001610be5565b90505b6001811115610811576f181899199a1a9b1b9c1cb0b131b232b360811b85600f16601081106107cd576107cd610c13565b1a60f81b8282815181106107e3576107e3610c13565b60200101906001600160f81b031916908160001a90535060049490941c9361080a81610c29565b905061079c565b5083156108605760405162461bcd60e51b815260206004820181905260248201527f537472696e67733a20686578206c656e67746820696e73756666696369656e74604482015260640161024e565b9392505050565b6060610876848460008561087e565b949350505050565b6060824710156108df5760405162461bcd60e51b815260206004820152602660248201527f416464726573733a20696e73756666696369656e742062616c616e636520666f6044820152651c8818d85b1b60d21b606482015260840161024e565b6001600160a01b0385163b6109365760405162461bcd60e51b815260206004820152601d60248201527f416464726573733a2063616c6c20746f206e6f6e2d636f6e7472616374000000604482015260640161024e565b600080866001600160a01b031685876040516109529190610c40565b60006040518083038185875af1925050503d806000811461098f576040519150601f19603f3d011682016040523d82523d6000602084013e610994565b606091505b50915091506109a48282866109af565b979650505050505050565b606083156109be575081610860565b8251156109ce5782518084602001fd5b8160405162461bcd60e51b815260040161024e9190610b5b565b6000602082840312156109fa57600080fd5b81356001600160e01b03198116811461086057600080fd5b600060208284031215610a2457600080fd5b5035919050565b80356001600160a01b0381168114610a4257600080fd5b919050565b60008060408385031215610a5a57600080fd5b82359150610a6a60208401610a2b565b90509250929050565b60008060408385031215610a8657600080fd5b610a8f83610a2b565b946020939093013593505050565b600060208284031215610aaf57600080fd5b5051919050565b60005b83811015610ad1578181015183820152602001610ab9565b83811115610ae0576000848401525b50505050565b7f416363657373436f6e74726f6c3a206163636f756e7420000000000000000000815260008351610b1e816017850160208801610ab6565b7001034b99036b4b9b9b4b733903937b6329607d1b6017918401918201528351610b4f816028840160208801610ab6565b01602801949350505050565b6020815260008251806020840152610b7a816040850160208701610ab6565b601f01601f19169190910160400192915050565b600060208284031215610ba057600080fd5b8151801515811461086057600080fd5b634e487b7160e01b600052601160045260246000fd5b6000816000190483118215151615610be057610be0610bb0565b500290565b60008219821115610bf857610bf8610bb0565b500190565b634e487b7160e01b600052604160045260246000fd5b634e487b7160e01b600052603260045260246000fd5b600081610c3857610c38610bb0565b506000190190565b60008251610c52818460208701610ab6565b919091019291505056fea2646970667358221220141649806b4ad10b14b38f4105d95887d89197c4af6dcb6fedf0ab134058283164736f6c634300080f0033",
  "devdoc": {
    "kind": "dev",
    "methods": {
      "getRoleAdmin(bytes32)": {
        "details": "Returns the admin role that controls `role`. See {grantRole} and {revokeRole}. To change a role's admin, use {_setRoleAdmin}."
      },
      "grantRole(bytes32,address)": {
        "details": "Grants `role` to `account`. If `account` had not been already granted `role`, emits a {RoleGranted} event. Requirements: - the caller must have ``role``'s admin role."
      },
      "hasRole(bytes32,address)": {
        "details": "Returns `true` if `account` has been granted `role`."
      },
      "issue(address,uint256)": {
        "params": {
          "amount": "uint256 The amount of Miner tokens to purchase.",
          "recipient": "address The address of the token recipient."
        }
      },
      "renounceRole(bytes32,address)": {
        "details": "Revokes `role` from the calling account. Roles are often managed via {grantRole} and {revokeRole}: this function's purpose is to provide a mechanism for accounts to lose their privileges if they are compromised (such as when a trusted device is misplaced). If the calling account had been revoked `role`, emits a {RoleRevoked} event. Requirements: - the caller must be `account`."
      },
      "revokeRole(bytes32,address)": {
        "details": "Revokes `role` from `account`. If `account` had been granted `role`, emits a {RoleRevoked} event. Requirements: - the caller must have ``role``'s admin role."
      },
      "supportsInterface(bytes4)": {
        "details": "See {IERC165-supportsInterface}."
      }
    },
    "version": 1
  },
  "userdoc": {
    "kind": "user",
    "methods": {
      "issue(address,uint256)": {
        "notice": "Issue miner tokens on a user's behalf."
      }
    },
    "version": 1
  },
  "storageLayout": {
    "storage": [
      {
        "astId": 70,
        "contract": "contracts/MinerReserve.sol:MinerReserve",
        "label": "_roles",
        "offset": 0,
        "slot": "0",
        "type": "t_mapping(t_bytes32,t_struct(RoleData)65_storage)"
      },
      {
        "astId": 2885,
        "contract": "contracts/MinerReserve.sol:MinerReserve",
        "label": "_token",
        "offset": 0,
        "slot": "1",
        "type": "t_address"
      }
    ],
    "types": {
      "t_address": {
        "encoding": "inplace",
        "label": "address",
        "numberOfBytes": "20"
      },
      "t_bool": {
        "encoding": "inplace",
        "label": "bool",
        "numberOfBytes": "1"
      },
      "t_bytes32": {
        "encoding": "inplace",
        "label": "bytes32",
        "numberOfBytes": "32"
      },
      "t_mapping(t_address,t_bool)": {
        "encoding": "mapping",
        "key": "t_address",
        "label": "mapping(address => bool)",
        "numberOfBytes": "32",
        "value": "t_bool"
      },
      "t_mapping(t_bytes32,t_struct(RoleData)65_storage)": {
        "encoding": "mapping",
        "key": "t_bytes32",
        "label": "mapping(bytes32 => struct AccessControl.RoleData)",
        "numberOfBytes": "32",
        "value": "t_struct(RoleData)65_storage"
      },
      "t_struct(RoleData)65_storage": {
        "encoding": "inplace",
        "label": "struct AccessControl.RoleData",
        "members": [
          {
            "astId": 62,
            "contract": "contracts/MinerReserve.sol:MinerReserve",
            "label": "members",
            "offset": 0,
            "slot": "0",
            "type": "t_mapping(t_address,t_bool)"
          },
          {
            "astId": 64,
            "contract": "contracts/MinerReserve.sol:MinerReserve",
            "label": "adminRole",
            "offset": 0,
            "slot": "1",
            "type": "t_bytes32"
          }
        ],
        "numberOfBytes": "64"
      }
    }
  }
}